{
  "_format": "hh-sol-artifact-1",
  "contractName": "CompoundController",
  "sourceName": "contracts/controllers/CompoundController.sol",
  "abi": [
    {
      "inputs": [
        {
          "internalType": "address",
          "name": "",
          "type": "address"
        },
        {
          "internalType": "uint256",
          "name": "",
          "type": "uint256"
        }
      ],
      "name": "UserInvestments",
      "outputs": [
        {
          "internalType": "uint256",
          "name": "tokenAmount",
          "type": "uint256"
        },
        {
          "internalType": "address",
          "name": "tokenAddress",
          "type": "address"
        },
        {
          "internalType": "uint256",
          "name": "exchangeRate",
          "type": "uint256"
        },
        {
          "internalType": "bool",
          "name": "isExists",
          "type": "bool"
        }
      ],
      "stateMutability": "view",
      "type": "function"
    },
    {
      "inputs": [
        {
          "internalType": "address",
          "name": "userAddress",
          "type": "address"
        },
        {
          "internalType": "uint256",
          "name": "investmentId",
          "type": "uint256"
        }
      ],
      "name": "_getUserInvestment",
      "outputs": [
        {
          "components": [
            {
              "internalType": "uint256",
              "name": "tokenAmount",
              "type": "uint256"
            },
            {
              "internalType": "address",
              "name": "tokenAddress",
              "type": "address"
            },
            {
              "internalType": "uint256",
              "name": "exchangeRate",
              "type": "uint256"
            },
            {
              "internalType": "bool",
              "name": "isExists",
              "type": "bool"
            }
          ],
          "internalType": "struct CompoundController.UserInvestedTokenDetails",
          "name": "",
          "type": "tuple"
        }
      ],
      "stateMutability": "view",
      "type": "function"
    },
    {
      "inputs": [
        {
          "internalType": "address",
          "name": "_cErc20",
          "type": "address"
        }
      ],
      "name": "balanceOfUnderlying",
      "outputs": [
        {
          "internalType": "uint256",
          "name": "",
          "type": "uint256"
        }
      ],
      "stateMutability": "nonpayable",
      "type": "function"
    },
    {
      "inputs": [
        {
          "internalType": "address",
          "name": "",
          "type": "address"
        }
      ],
      "name": "countUserInvestments",
      "outputs": [
        {
          "internalType": "uint256",
          "name": "",
          "type": "uint256"
        }
      ],
      "stateMutability": "view",
      "type": "function"
    },
    {
      "inputs": [
        {
          "internalType": "address",
          "name": "_cErc20",
          "type": "address"
        }
      ],
      "name": "estimateBalanceOfUnderlying",
      "outputs": [
        {
          "internalType": "uint256",
          "name": "",
          "type": "uint256"
        }
      ],
      "stateMutability": "nonpayable",
      "type": "function"
    },
    {
      "inputs": [
        {
          "internalType": "address",
          "name": "cTokenAddress",
          "type": "address"
        }
      ],
      "name": "getInfo",
      "outputs": [
        {
          "internalType": "uint256",
          "name": "exchangeRate",
          "type": "uint256"
        },
        {
          "internalType": "uint256",
          "name": "supplyRate",
          "type": "uint256"
        }
      ],
      "stateMutability": "nonpayable",
      "type": "function"
    },
    {
      "inputs": [
        {
          "internalType": "uint256",
          "name": "amountToRedeem",
          "type": "uint256"
        },
        {
          "internalType": "bool",
          "name": "redeemType",
          "type": "bool"
        },
        {
          "internalType": "address",
          "name": "_cErc20",
          "type": "address"
        },
        {
          "internalType": "address",
          "name": "_erc20Address",
          "type": "address"
        },
        {
          "internalType": "address",
          "name": "userAddress",
          "type": "address"
        },
        {
          "internalType": "uint256",
          "name": "investmentId",
          "type": "uint256"
        }
      ],
      "name": "redeemCErc20Tokens",
      "outputs": [
        {
          "internalType": "bool",
          "name": "",
          "type": "bool"
        }
      ],
      "stateMutability": "nonpayable",
      "type": "function"
    },
    {
      "inputs": [
        {
          "internalType": "address",
          "name": "_erc20Address",
          "type": "address"
        },
        {
          "internalType": "address",
          "name": "_cErc20Address",
          "type": "address"
        },
        {
          "internalType": "address",
          "name": "userAddress",
          "type": "address"
        },
        {
          "internalType": "uint256",
          "name": "tokenAmount",
          "type": "uint256"
        }
      ],
      "name": "supplyErc20ToCompound",
      "outputs": [
        {
          "internalType": "bool",
          "name": "",
          "type": "bool"
        }
      ],
      "stateMutability": "nonpayable",
      "type": "function"
    }
  ],
  "bytecode": "0x608060405234801561001057600080fd5b50600160008190555061157a806100286000396000f3fe608060405234801561001057600080fd5b50600436106100885760003560e01c8063bd208beb1161005b578063bd208beb1461014d578063e52bbc1b1461017d578063f2a92b37146101ad578063ffdd5cf1146101e057610088565b8063347e74711461008d5780633af9e669146100bd5780635a446a7f146100ed578063add4fcd01461011d575b600080fd5b6100a760048036038101906100a29190610e80565b610211565b6040516100b491906110e8565b60405180910390f35b6100d760048036038101906100d29190610df4565b6103ac565b6040516100e49190611103565b60405180910390f35b61010760048036038101906101029190610e1d565b610445565b60405161011491906110ad565b60405180910390f35b61013760048036038101906101329190610f0e565b61064a565b60405161014491906110ad565b60405180910390f35b61016760048036038101906101629190610df4565b61089f565b6040516101749190611103565b60405180910390f35b61019760048036038101906101929190610df4565b6108b7565b6040516101a49190611103565b60405180910390f35b6101c760048036038101906101c29190610e80565b610a20565b6040516101d7949392919061111e565b60405180910390f35b6101fa60048036038101906101f59190610df4565b610a8a565b604051610208929190611163565b60405180910390f35b610219610d4b565b600160008473ffffffffffffffffffffffffffffffffffffffff1673ffffffffffffffffffffffffffffffffffffffff168152602001908152602001600020600083815260200190815260200160002060030160009054906101000a900460ff161561036657600160008473ffffffffffffffffffffffffffffffffffffffff1673ffffffffffffffffffffffffffffffffffffffff1681526020019081526020016000206000838152602001908152602001600020604051806080016040529081600082015481526020016001820160009054906101000a900473ffffffffffffffffffffffffffffffffffffffff1673ffffffffffffffffffffffffffffffffffffffff1673ffffffffffffffffffffffffffffffffffffffff168152602001600282015481526020016003820160009054906101000a900460ff16151515158152505090506103a6565b604051806080016040528060008152602001600073ffffffffffffffffffffffffffffffffffffffff168152602001600081526020016000151581525090505b92915050565b6000808290508073ffffffffffffffffffffffffffffffffffffffff16633af9e669306040518263ffffffff1660e01b81526004016103eb9190611069565b602060405180830381600087803b15801561040557600080fd5b505af1158015610419573d6000803e3d6000fd5b505050506040513d601f19601f8201168201806040525081019061043d9190610ee5565b915050919050565b60008085905060008590508173ffffffffffffffffffffffffffffffffffffffff1663095ea7b387866040518363ffffffff1660e01b815260040161048b929190611084565b602060405180830381600087803b1580156104a557600080fd5b505af11580156104b9573d6000803e3d6000fd5b505050506040513d601f19601f820116820180604052508101906104dd9190610ebc565b5060008173ffffffffffffffffffffffffffffffffffffffff1663a0712d68866040518263ffffffff1660e01b81526004016105199190611103565b602060405180830381600087803b15801561053357600080fd5b505af1158015610547573d6000803e3d6000fd5b505050506040513d601f19601f8201168201806040525081019061056b9190610ee5565b146105ab576040517f08c379a00000000000000000000000000000000000000000000000000000000081526004016105a2906110c8565b60405180910390fd5b60008173ffffffffffffffffffffffffffffffffffffffff1663bd6d894d6040518163ffffffff1660e01b8152600401602060405180830381600087803b1580156105f557600080fd5b505af1158015610609573d6000803e3d6000fd5b505050506040513d601f19601f8201168201806040525081019061062d9190610ee5565b905061063b86898388610b9c565b60019350505050949350505050565b6000806106578484610211565b9050600086905060006001151589151514156106ff578173ffffffffffffffffffffffffffffffffffffffff1663db006a758b6040518263ffffffff1660e01b81526004016106a69190611103565b602060405180830381600087803b1580156106c057600080fd5b505af11580156106d4573d6000803e3d6000fd5b505050506040513d601f19601f820116820180604052508101906106f89190610ee5565b905061078d565b8173ffffffffffffffffffffffffffffffffffffffff1663852a12e38b6040518263ffffffff1660e01b81526004016107389190611103565b602060405180830381600087803b15801561075257600080fd5b505af1158015610766573d6000803e3d6000fd5b505050506040513d601f19601f8201168201806040525081019061078a9190610ee5565b90505b60008790508073ffffffffffffffffffffffffffffffffffffffff1663095ea7b3338d6040518363ffffffff1660e01b81526004016107cd929190611084565b602060405180830381600087803b1580156107e757600080fd5b505af11580156107fb573d6000803e3d6000fd5b505050506040513d601f19601f8201168201806040525081019061081f9190610ebc565b5060008b856000015161083291906113ef565b905080600160008a73ffffffffffffffffffffffffffffffffffffffff1673ffffffffffffffffffffffffffffffffffffffff1681526020019081526020016000206000898152602001908152602001600020600001819055506001955050505050509695505050505050565b60026020528060005260406000206000915090505481565b60008082905060008173ffffffffffffffffffffffffffffffffffffffff166370a08231306040518263ffffffff1660e01b81526004016108f89190611069565b60206040518083038186803b15801561091057600080fd5b505afa158015610924573d6000803e3d6000fd5b505050506040513d601f19601f820116820180604052508101906109489190610ee5565b905060008273ffffffffffffffffffffffffffffffffffffffff1663bd6d894d6040518163ffffffff1660e01b8152600401602060405180830381600087803b15801561099457600080fd5b505af11580156109a8573d6000803e3d6000fd5b505050506040513d601f19601f820116820180604052508101906109cc9190610ee5565b9050600060089050600060089050808260126109e8919061119d565b6109f291906113ef565b600a6109fe9190611277565b8385610a0a9190611395565b610a1491906111f3565b95505050505050919050565b6001602052816000526040600020602052806000526040600020600091509150508060000154908060010160009054906101000a900473ffffffffffffffffffffffffffffffffffffffff16908060020154908060030160009054906101000a900460ff16905084565b60008060008390508073ffffffffffffffffffffffffffffffffffffffff1663bd6d894d6040518163ffffffff1660e01b8152600401602060405180830381600087803b158015610ada57600080fd5b505af1158015610aee573d6000803e3d6000fd5b505050506040513d601f19601f82011682018060405250810190610b129190610ee5565b92508073ffffffffffffffffffffffffffffffffffffffff1663ae9d70b06040518163ffffffff1660e01b8152600401602060405180830381600087803b158015610b5c57600080fd5b505af1158015610b70573d6000803e3d6000fd5b505050506040513d601f19601f82011682018060405250810190610b949190610ee5565b915050915091565b6000600260008673ffffffffffffffffffffffffffffffffffffffff1673ffffffffffffffffffffffffffffffffffffffff16815260200190815260200160002054905060405180608001604052808381526020018573ffffffffffffffffffffffffffffffffffffffff16815260200184815260200160011515815250600160008773ffffffffffffffffffffffffffffffffffffffff1673ffffffffffffffffffffffffffffffffffffffff1681526020019081526020016000206000600184610c68919061119d565b81526020019081526020016000206000820151816000015560208201518160010160006101000a81548173ffffffffffffffffffffffffffffffffffffffff021916908373ffffffffffffffffffffffffffffffffffffffff1602179055506040820151816002015560608201518160030160006101000a81548160ff021916908315150217905550905050600181610d01919061119d565b600260008773ffffffffffffffffffffffffffffffffffffffff1673ffffffffffffffffffffffffffffffffffffffff168152602001908152602001600020819055505050505050565b604051806080016040528060008152602001600073ffffffffffffffffffffffffffffffffffffffff168152602001600081526020016000151581525090565b600081359050610d9a816114ff565b92915050565b600081359050610daf81611516565b92915050565b600081519050610dc481611516565b92915050565b600081359050610dd98161152d565b92915050565b600081519050610dee8161152d565b92915050565b600060208284031215610e0657600080fd5b6000610e1484828501610d8b565b91505092915050565b60008060008060808587031215610e3357600080fd5b6000610e4187828801610d8b565b9450506020610e5287828801610d8b565b9350506040610e6387828801610d8b565b9250506060610e7487828801610dca565b91505092959194509250565b60008060408385031215610e9357600080fd5b6000610ea185828601610d8b565b9250506020610eb285828601610dca565b9150509250929050565b600060208284031215610ece57600080fd5b6000610edc84828501610db5565b91505092915050565b600060208284031215610ef757600080fd5b6000610f0584828501610ddf565b91505092915050565b60008060008060008060c08789031215610f2757600080fd5b6000610f3589828a01610dca565b9650506020610f4689828a01610da0565b9550506040610f5789828a01610d8b565b9450506060610f6889828a01610d8b565b9350506080610f7989828a01610d8b565b92505060a0610f8a89828a01610dca565b9150509295509295509295565b610fa081611423565b82525050565b610faf81611423565b82525050565b610fbe81611435565b82525050565b610fcd81611435565b82525050565b6000610fe060168361118c565b9150610feb826114d6565b602082019050919050565b60808201600082015161100c600085018261104b565b50602082015161101f6020850182610f97565b506040820151611032604085018261104b565b5060608201516110456060850182610fb5565b50505050565b61105481611461565b82525050565b61106381611461565b82525050565b600060208201905061107e6000830184610fa6565b92915050565b60006040820190506110996000830185610fa6565b6110a6602083018461105a565b9392505050565b60006020820190506110c26000830184610fc4565b92915050565b600060208201905081810360008301526110e181610fd3565b9050919050565b60006080820190506110fd6000830184610ff6565b92915050565b6000602082019050611118600083018461105a565b92915050565b6000608082019050611133600083018761105a565b6111406020830186610fa6565b61114d604083018561105a565b61115a6060830184610fc4565b95945050505050565b6000604082019050611178600083018561105a565b611185602083018461105a565b9392505050565b600082825260208201905092915050565b60006111a882611461565b91506111b383611461565b9250827fffffffffffffffffffffffffffffffffffffffffffffffffffffffffffffffff038211156111e8576111e761146b565b5b828201905092915050565b60006111fe82611461565b915061120983611461565b9250826112195761121861149a565b5b828204905092915050565b6000808291508390505b600185111561126e5780860481111561124a5761124961146b565b5b60018516156112595780820291505b8081029050611267856114c9565b945061122e565b94509492505050565b600061128282611461565b915061128d83611461565b92506112ba7fffffffffffffffffffffffffffffffffffffffffffffffffffffffffffffffff84846112c2565b905092915050565b6000826112d2576001905061138e565b816112e0576000905061138e565b81600181146112f657600281146113005761132f565b600191505061138e565b60ff8411156113125761131161146b565b5b8360020a9150848211156113295761132861146b565b5b5061138e565b5060208310610133831016604e8410600b84101617156113645782820a90508381111561135f5761135e61146b565b5b61138e565b6113718484846001611224565b925090508184048111156113885761138761146b565b5b81810290505b9392505050565b60006113a082611461565b91506113ab83611461565b9250817fffffffffffffffffffffffffffffffffffffffffffffffffffffffffffffffff04831182151516156113e4576113e361146b565b5b828202905092915050565b60006113fa82611461565b915061140583611461565b9250828210156114185761141761146b565b5b828203905092915050565b600061142e82611441565b9050919050565b60008115159050919050565b600073ffffffffffffffffffffffffffffffffffffffff82169050919050565b6000819050919050565b7f4e487b7100000000000000000000000000000000000000000000000000000000600052601160045260246000fd5b7f4e487b7100000000000000000000000000000000000000000000000000000000600052601260045260246000fd5b60008160011c9050919050565b7f636f6d706f756e643a206d696e74206661696c65642100000000000000000000600082015250565b61150881611423565b811461151357600080fd5b50565b61151f81611435565b811461152a57600080fd5b50565b61153681611461565b811461154157600080fd5b5056fea26469706673582212206eaaf60d28179711ec2c63457b8d5945b1f4fdd417abfd0323c0ecbf5aa76ee964736f6c63430008020033",
  "linkReferences": {},
  "deployedLinkReferences": {}
}