{
  "_format": "hh-sol-artifact-1",
  "contractName": "Vault",
  "sourceName": "contracts/vault/Vault.sol",
  "abi": [
    {
      "anonymous": false,
      "inputs": [
        {
          "indexed": true,
          "internalType": "address",
          "name": "previousOwner",
          "type": "address"
        },
        {
          "indexed": true,
          "internalType": "address",
          "name": "newOwner",
          "type": "address"
        }
      ],
      "name": "OwnershipTransferred",
      "type": "event"
    },
    {
      "inputs": [
        {
          "internalType": "address",
          "name": "userAddress",
          "type": "address"
        },
        {
          "internalType": "address",
          "name": "tokenAddress",
          "type": "address"
        }
      ],
      "name": "_getUserVault",
      "outputs": [
        {
          "components": [
            {
              "internalType": "address",
              "name": "userAddress",
              "type": "address"
            },
            {
              "internalType": "uint256",
              "name": "totalAmount",
              "type": "uint256"
            },
            {
              "internalType": "bool",
              "name": "isExists",
              "type": "bool"
            }
          ],
          "internalType": "struct Vault.UserVaultTokenDetail",
          "name": "",
          "type": "tuple"
        }
      ],
      "stateMutability": "view",
      "type": "function"
    },
    {
      "inputs": [
        {
          "internalType": "address",
          "name": "userAddress",
          "type": "address"
        },
        {
          "internalType": "address",
          "name": "tokenAddress",
          "type": "address"
        },
        {
          "internalType": "uint256",
          "name": "amount",
          "type": "uint256"
        }
      ],
      "name": "_setUserVault",
      "outputs": [],
      "stateMutability": "nonpayable",
      "type": "function"
    },
    {
      "inputs": [
        {
          "internalType": "address",
          "name": "userAddress",
          "type": "address"
        },
        {
          "internalType": "address",
          "name": "tokenAddress",
          "type": "address"
        }
      ],
      "name": "getUserTokenBalance",
      "outputs": [
        {
          "internalType": "uint256",
          "name": "",
          "type": "uint256"
        }
      ],
      "stateMutability": "view",
      "type": "function"
    },
    {
      "inputs": [],
      "name": "owner",
      "outputs": [
        {
          "internalType": "address",
          "name": "",
          "type": "address"
        }
      ],
      "stateMutability": "view",
      "type": "function"
    },
    {
      "inputs": [],
      "name": "renounceOwnership",
      "outputs": [],
      "stateMutability": "nonpayable",
      "type": "function"
    },
    {
      "inputs": [],
      "name": "totalInVault",
      "outputs": [
        {
          "internalType": "uint256",
          "name": "",
          "type": "uint256"
        }
      ],
      "stateMutability": "view",
      "type": "function"
    },
    {
      "inputs": [
        {
          "internalType": "address",
          "name": "newOwner",
          "type": "address"
        }
      ],
      "name": "transferOwnership",
      "outputs": [],
      "stateMutability": "nonpayable",
      "type": "function"
    },
    {
      "inputs": [
        {
          "internalType": "address",
          "name": "",
          "type": "address"
        },
        {
          "internalType": "address",
          "name": "",
          "type": "address"
        }
      ],
      "name": "userVault",
      "outputs": [
        {
          "internalType": "address",
          "name": "userAddress",
          "type": "address"
        },
        {
          "internalType": "uint256",
          "name": "totalAmount",
          "type": "uint256"
        },
        {
          "internalType": "bool",
          "name": "isExists",
          "type": "bool"
        }
      ],
      "stateMutability": "view",
      "type": "function"
    }
  ],
  "bytecode": "0x608060405234801561001057600080fd5b5061002d61002261003260201b60201c565b61003a60201b60201c565b6100fe565b600033905090565b60008060009054906101000a900473ffffffffffffffffffffffffffffffffffffffff169050816000806101000a81548173ffffffffffffffffffffffffffffffffffffffff021916908373ffffffffffffffffffffffffffffffffffffffff1602179055508173ffffffffffffffffffffffffffffffffffffffff168173ffffffffffffffffffffffffffffffffffffffff167f8be0079c531659141344cd1fd0a4f28419497f9722a3daafe3b4186f6b6457e060405160405180910390a35050565b6110388061010d6000396000f3fe608060405234801561001057600080fd5b50600436106100885760003560e01c8063a9eda80f1161005b578063a9eda80f14610101578063e5cde48614610131578063f2fde38b1461014f578063f3ede0d51461016b57610088565b80635fac5e871461008d578063715018a6146100a957806373f8fd4b146100b35780638da5cb5b146100e3575b600080fd5b6100a760048036038101906100a29190610bca565b61019d565b005b6100b161058d565b005b6100cd60048036038101906100c89190610b8e565b610615565b6040516100da9190610e4c565b60405180910390f35b6100eb61069f565b6040516100f89190610d4d565b60405180910390f35b61011b60048036038101906101169190610b8e565b6106c8565b6040516101289190610e31565b60405180910390f35b6101396108aa565b6040516101469190610e4c565b60405180910390f35b61016960048036038101906101649190610b65565b6108b0565b005b61018560048036038101906101809190610b8e565b6109a8565b60405161019493929190610dba565b60405180910390f35b6101a5610a0c565b73ffffffffffffffffffffffffffffffffffffffff166101c361069f565b73ffffffffffffffffffffffffffffffffffffffff1614610219576040517f08c379a000000000000000000000000000000000000000000000000000000000815260040161021090610e11565b60405180910390fd5b6000829050600160008573ffffffffffffffffffffffffffffffffffffffff1673ffffffffffffffffffffffffffffffffffffffff16815260200190815260200160002060008473ffffffffffffffffffffffffffffffffffffffff1673ffffffffffffffffffffffffffffffffffffffff16815260200190815260200160002060020160009054906101000a900460ff16156103395781600160008673ffffffffffffffffffffffffffffffffffffffff1673ffffffffffffffffffffffffffffffffffffffff16815260200190815260200160002060008573ffffffffffffffffffffffffffffffffffffffff1673ffffffffffffffffffffffffffffffffffffffff1681526020019081526020016000206001018190555061045e565b60405180606001604052808573ffffffffffffffffffffffffffffffffffffffff16815260200183815260200160011515815250600160008673ffffffffffffffffffffffffffffffffffffffff1673ffffffffffffffffffffffffffffffffffffffff16815260200190815260200160002060008573ffffffffffffffffffffffffffffffffffffffff1673ffffffffffffffffffffffffffffffffffffffff16815260200190815260200160002060008201518160000160006101000a81548173ffffffffffffffffffffffffffffffffffffffff021916908373ffffffffffffffffffffffffffffffffffffffff1602179055506020820151816001015560408201518160020160006101000a81548160ff0219169083151502179055509050505b60008173ffffffffffffffffffffffffffffffffffffffff1663dd62ed3e30336040518363ffffffff1660e01b815260040161049b929190610d68565b60206040518083038186803b1580156104b357600080fd5b505afa1580156104c7573d6000803e3d6000fd5b505050506040513d601f19601f820116820180604052508101906104eb9190610c42565b90508173ffffffffffffffffffffffffffffffffffffffff1663095ea7b33385846105169190610e78565b6040518363ffffffff1660e01b8152600401610533929190610d91565b602060405180830381600087803b15801561054d57600080fd5b505af1158015610561573d6000803e3d6000fd5b505050506040513d601f19601f820116820180604052508101906105859190610c19565b505050505050565b610595610a0c565b73ffffffffffffffffffffffffffffffffffffffff166105b361069f565b73ffffffffffffffffffffffffffffffffffffffff1614610609576040517f08c379a000000000000000000000000000000000000000000000000000000000815260040161060090610e11565b60405180910390fd5b6106136000610a14565b565b6000600160008473ffffffffffffffffffffffffffffffffffffffff1673ffffffffffffffffffffffffffffffffffffffff16815260200190815260200160002060008373ffffffffffffffffffffffffffffffffffffffff1673ffffffffffffffffffffffffffffffffffffffff16815260200190815260200160002060010154905092915050565b60008060009054906101000a900473ffffffffffffffffffffffffffffffffffffffff16905090565b6106d0610ad8565b600160008473ffffffffffffffffffffffffffffffffffffffff1673ffffffffffffffffffffffffffffffffffffffff16815260200190815260200160002060008373ffffffffffffffffffffffffffffffffffffffff1673ffffffffffffffffffffffffffffffffffffffff16815260200190815260200160002060020160009054906101000a900460ff161561086b57600160008473ffffffffffffffffffffffffffffffffffffffff1673ffffffffffffffffffffffffffffffffffffffff16815260200190815260200160002060008373ffffffffffffffffffffffffffffffffffffffff1673ffffffffffffffffffffffffffffffffffffffff1681526020019081526020016000206040518060600160405290816000820160009054906101000a900473ffffffffffffffffffffffffffffffffffffffff1673ffffffffffffffffffffffffffffffffffffffff1673ffffffffffffffffffffffffffffffffffffffff168152602001600182015481526020016002820160009054906101000a900460ff16151515158152505090506108a4565b6040518060600160405280600073ffffffffffffffffffffffffffffffffffffffff168152602001600081526020016000151581525090505b92915050565b60025481565b6108b8610a0c565b73ffffffffffffffffffffffffffffffffffffffff166108d661069f565b73ffffffffffffffffffffffffffffffffffffffff161461092c576040517f08c379a000000000000000000000000000000000000000000000000000000000815260040161092390610e11565b60405180910390fd5b600073ffffffffffffffffffffffffffffffffffffffff168173ffffffffffffffffffffffffffffffffffffffff16141561099c576040517f08c379a000000000000000000000000000000000000000000000000000000000815260040161099390610df1565b60405180910390fd5b6109a581610a14565b50565b6001602052816000526040600020602052806000526040600020600091509150508060000160009054906101000a900473ffffffffffffffffffffffffffffffffffffffff16908060010154908060020160009054906101000a900460ff16905083565b600033905090565b60008060009054906101000a900473ffffffffffffffffffffffffffffffffffffffff169050816000806101000a81548173ffffffffffffffffffffffffffffffffffffffff021916908373ffffffffffffffffffffffffffffffffffffffff1602179055508173ffffffffffffffffffffffffffffffffffffffff168173ffffffffffffffffffffffffffffffffffffffff167f8be0079c531659141344cd1fd0a4f28419497f9722a3daafe3b4186f6b6457e060405160405180910390a35050565b6040518060600160405280600073ffffffffffffffffffffffffffffffffffffffff168152602001600081526020016000151581525090565b600081359050610b2081610fbd565b92915050565b600081519050610b3581610fd4565b92915050565b600081359050610b4a81610feb565b92915050565b600081519050610b5f81610feb565b92915050565b600060208284031215610b7757600080fd5b6000610b8584828501610b11565b91505092915050565b60008060408385031215610ba157600080fd5b6000610baf85828601610b11565b9250506020610bc085828601610b11565b9150509250929050565b600080600060608486031215610bdf57600080fd5b6000610bed86828701610b11565b9350506020610bfe86828701610b11565b9250506040610c0f86828701610b3b565b9150509250925092565b600060208284031215610c2b57600080fd5b6000610c3984828501610b26565b91505092915050565b600060208284031215610c5457600080fd5b6000610c6284828501610b50565b91505092915050565b610c7481610ece565b82525050565b610c8381610ece565b82525050565b610c9281610ee0565b82525050565b610ca181610ee0565b82525050565b6000610cb4602683610e67565b9150610cbf82610f45565b604082019050919050565b6000610cd7602083610e67565b9150610ce282610f94565b602082019050919050565b606082016000820151610d036000850182610c6b565b506020820151610d166020850182610d2f565b506040820151610d296040850182610c89565b50505050565b610d3881610f0c565b82525050565b610d4781610f0c565b82525050565b6000602082019050610d626000830184610c7a565b92915050565b6000604082019050610d7d6000830185610c7a565b610d8a6020830184610c7a565b9392505050565b6000604082019050610da66000830185610c7a565b610db36020830184610d3e565b9392505050565b6000606082019050610dcf6000830186610c7a565b610ddc6020830185610d3e565b610de96040830184610c98565b949350505050565b60006020820190508181036000830152610e0a81610ca7565b9050919050565b60006020820190508181036000830152610e2a81610cca565b9050919050565b6000606082019050610e466000830184610ced565b92915050565b6000602082019050610e616000830184610d3e565b92915050565b600082825260208201905092915050565b6000610e8382610f0c565b9150610e8e83610f0c565b9250827fffffffffffffffffffffffffffffffffffffffffffffffffffffffffffffffff03821115610ec357610ec2610f16565b5b828201905092915050565b6000610ed982610eec565b9050919050565b60008115159050919050565b600073ffffffffffffffffffffffffffffffffffffffff82169050919050565b6000819050919050565b7f4e487b7100000000000000000000000000000000000000000000000000000000600052601160045260246000fd5b7f4f776e61626c653a206e6577206f776e657220697320746865207a65726f206160008201527f6464726573730000000000000000000000000000000000000000000000000000602082015250565b7f4f776e61626c653a2063616c6c6572206973206e6f7420746865206f776e6572600082015250565b610fc681610ece565b8114610fd157600080fd5b50565b610fdd81610ee0565b8114610fe857600080fd5b50565b610ff481610f0c565b8114610fff57600080fd5b5056fea2646970667358221220cc788e5368609ca709dd79fe7a2c4bc5abbf03bc7aac8879303ec8506592638f64736f6c63430008020033",
  "linkReferences": {},
  "deployedLinkReferences": {}
}