{
  "_format": "hh-sol-artifact-1",
  "contractName": "UserWallet",
  "sourceName": "contracts/controllers/UserWallet.sol",
  "abi": [
    {
      "inputs": [
        {
          "internalType": "address",
          "name": "_vaultAddress",
          "type": "address"
        },
        {
          "internalType": "address",
          "name": "_compoundControllerAddress",
          "type": "address"
        }
      ],
      "stateMutability": "nonpayable",
      "type": "constructor"
    },
    {
      "anonymous": false,
      "inputs": [
        {
          "indexed": true,
          "internalType": "address",
          "name": "previousOwner",
          "type": "address"
        },
        {
          "indexed": true,
          "internalType": "address",
          "name": "newOwner",
          "type": "address"
        }
      ],
      "name": "OwnershipTransferred",
      "type": "event"
    },
    {
      "inputs": [
        {
          "internalType": "address",
          "name": "",
          "type": "address"
        },
        {
          "internalType": "uint256",
          "name": "",
          "type": "uint256"
        }
      ],
      "name": "UserInvestments",
      "outputs": [
        {
          "internalType": "uint256",
          "name": "tokenAmount",
          "type": "uint256"
        },
        {
          "internalType": "address",
          "name": "tokenAddress",
          "type": "address"
        },
        {
          "internalType": "uint256",
          "name": "exchangeRate",
          "type": "uint256"
        },
        {
          "internalType": "bool",
          "name": "isExists",
          "type": "bool"
        }
      ],
      "stateMutability": "view",
      "type": "function"
    },
    {
      "inputs": [
        {
          "internalType": "address",
          "name": "userAddress",
          "type": "address"
        },
        {
          "internalType": "uint256",
          "name": "investmentId",
          "type": "uint256"
        }
      ],
      "name": "_getUserInvestment",
      "outputs": [
        {
          "components": [
            {
              "internalType": "uint256",
              "name": "tokenAmount",
              "type": "uint256"
            },
            {
              "internalType": "address",
              "name": "tokenAddress",
              "type": "address"
            },
            {
              "internalType": "uint256",
              "name": "exchangeRate",
              "type": "uint256"
            },
            {
              "internalType": "bool",
              "name": "isExists",
              "type": "bool"
            }
          ],
          "internalType": "struct CompoundController.UserInvestedTokenDetails",
          "name": "",
          "type": "tuple"
        }
      ],
      "stateMutability": "view",
      "type": "function"
    },
    {
      "inputs": [
        {
          "internalType": "address",
          "name": "userAddress",
          "type": "address"
        },
        {
          "internalType": "address",
          "name": "tokenAddress",
          "type": "address"
        }
      ],
      "name": "_getUserVault",
      "outputs": [
        {
          "components": [
            {
              "internalType": "address",
              "name": "userAddress",
              "type": "address"
            },
            {
              "internalType": "uint256",
              "name": "totalAmount",
              "type": "uint256"
            },
            {
              "internalType": "bool",
              "name": "isExists",
              "type": "bool"
            }
          ],
          "internalType": "struct Vault.UserVaultTokenDetail",
          "name": "",
          "type": "tuple"
        }
      ],
      "stateMutability": "view",
      "type": "function"
    },
    {
      "inputs": [
        {
          "internalType": "address",
          "name": "userAddress",
          "type": "address"
        },
        {
          "internalType": "address",
          "name": "tokenAddress",
          "type": "address"
        },
        {
          "internalType": "uint256",
          "name": "amount",
          "type": "uint256"
        }
      ],
      "name": "_setUserVault",
      "outputs": [],
      "stateMutability": "nonpayable",
      "type": "function"
    },
    {
      "inputs": [
        {
          "internalType": "address",
          "name": "_cErc20",
          "type": "address"
        }
      ],
      "name": "balanceOfUnderlying",
      "outputs": [
        {
          "internalType": "uint256",
          "name": "",
          "type": "uint256"
        }
      ],
      "stateMutability": "nonpayable",
      "type": "function"
    },
    {
      "inputs": [
        {
          "internalType": "address",
          "name": "",
          "type": "address"
        }
      ],
      "name": "countUserInvestments",
      "outputs": [
        {
          "internalType": "uint256",
          "name": "",
          "type": "uint256"
        }
      ],
      "stateMutability": "view",
      "type": "function"
    },
    {
      "inputs": [
        {
          "internalType": "address",
          "name": "tokenAddress",
          "type": "address"
        },
        {
          "internalType": "uint256",
          "name": "amount",
          "type": "uint256"
        }
      ],
      "name": "deposit",
      "outputs": [
        {
          "internalType": "bool",
          "name": "success",
          "type": "bool"
        }
      ],
      "stateMutability": "nonpayable",
      "type": "function"
    },
    {
      "inputs": [
        {
          "internalType": "address",
          "name": "_cErc20",
          "type": "address"
        }
      ],
      "name": "estimateBalanceOfUnderlying",
      "outputs": [
        {
          "internalType": "uint256",
          "name": "",
          "type": "uint256"
        }
      ],
      "stateMutability": "nonpayable",
      "type": "function"
    },
    {
      "inputs": [
        {
          "internalType": "address",
          "name": "cTokenAddress",
          "type": "address"
        }
      ],
      "name": "getInfo",
      "outputs": [
        {
          "internalType": "uint256",
          "name": "exchangeRate",
          "type": "uint256"
        },
        {
          "internalType": "uint256",
          "name": "supplyRate",
          "type": "uint256"
        }
      ],
      "stateMutability": "nonpayable",
      "type": "function"
    },
    {
      "inputs": [
        {
          "internalType": "address",
          "name": "userAddress",
          "type": "address"
        },
        {
          "internalType": "address",
          "name": "tokenAddress",
          "type": "address"
        }
      ],
      "name": "getUserTokenBalance",
      "outputs": [
        {
          "internalType": "uint256",
          "name": "",
          "type": "uint256"
        }
      ],
      "stateMutability": "view",
      "type": "function"
    },
    {
      "inputs": [
        {
          "internalType": "address",
          "name": "_erc20",
          "type": "address"
        },
        {
          "internalType": "address",
          "name": "_cErc20",
          "type": "address"
        },
        {
          "internalType": "uint256",
          "name": "tokenAmount",
          "type": "uint256"
        }
      ],
      "name": "investInCompound",
      "outputs": [
        {
          "internalType": "bool",
          "name": "",
          "type": "bool"
        }
      ],
      "stateMutability": "nonpayable",
      "type": "function"
    },
    {
      "inputs": [],
      "name": "owner",
      "outputs": [
        {
          "internalType": "address",
          "name": "",
          "type": "address"
        }
      ],
      "stateMutability": "view",
      "type": "function"
    },
    {
      "inputs": [
        {
          "internalType": "uint256",
          "name": "amountToRedeem",
          "type": "uint256"
        },
        {
          "internalType": "bool",
          "name": "redeemType",
          "type": "bool"
        },
        {
          "internalType": "address",
          "name": "_cErc20",
          "type": "address"
        },
        {
          "internalType": "address",
          "name": "_erc20Address",
          "type": "address"
        },
        {
          "internalType": "address",
          "name": "userAddress",
          "type": "address"
        },
        {
          "internalType": "uint256",
          "name": "investmentId",
          "type": "uint256"
        }
      ],
      "name": "redeemCErc20Tokens",
      "outputs": [
        {
          "internalType": "bool",
          "name": "",
          "type": "bool"
        }
      ],
      "stateMutability": "nonpayable",
      "type": "function"
    },
    {
      "inputs": [],
      "name": "renounceOwnership",
      "outputs": [],
      "stateMutability": "nonpayable",
      "type": "function"
    },
    {
      "inputs": [
        {
          "internalType": "address",
          "name": "_erc20Address",
          "type": "address"
        },
        {
          "internalType": "address",
          "name": "_cErc20Address",
          "type": "address"
        },
        {
          "internalType": "address",
          "name": "userAddress",
          "type": "address"
        },
        {
          "internalType": "uint256",
          "name": "tokenAmount",
          "type": "uint256"
        }
      ],
      "name": "supplyErc20ToCompound",
      "outputs": [
        {
          "internalType": "bool",
          "name": "",
          "type": "bool"
        }
      ],
      "stateMutability": "nonpayable",
      "type": "function"
    },
    {
      "inputs": [],
      "name": "totalInVault",
      "outputs": [
        {
          "internalType": "uint256",
          "name": "",
          "type": "uint256"
        }
      ],
      "stateMutability": "view",
      "type": "function"
    },
    {
      "inputs": [
        {
          "internalType": "address",
          "name": "newOwner",
          "type": "address"
        }
      ],
      "name": "transferOwnership",
      "outputs": [],
      "stateMutability": "nonpayable",
      "type": "function"
    },
    {
      "inputs": [
        {
          "internalType": "address",
          "name": "",
          "type": "address"
        },
        {
          "internalType": "address",
          "name": "",
          "type": "address"
        }
      ],
      "name": "userVault",
      "outputs": [
        {
          "internalType": "address",
          "name": "userAddress",
          "type": "address"
        },
        {
          "internalType": "uint256",
          "name": "totalAmount",
          "type": "uint256"
        },
        {
          "internalType": "bool",
          "name": "isExists",
          "type": "bool"
        }
      ],
      "stateMutability": "view",
      "type": "function"
    },
    {
      "inputs": [
        {
          "internalType": "address",
          "name": "_erc20",
          "type": "address"
        },
        {
          "internalType": "address",
          "name": "_cErc20",
          "type": "address"
        },
        {
          "internalType": "uint256",
          "name": "tokenAmount",
          "type": "uint256"
        },
        {
          "internalType": "uint256",
          "name": "investmentId",
          "type": "uint256"
        }
      ],
      "name": "withdrawFromCompound",
      "outputs": [
        {
          "internalType": "bool",
          "name": "",
          "type": "bool"
        }
      ],
      "stateMutability": "nonpayable",
      "type": "function"
    },
    {
      "inputs": [
        {
          "internalType": "address",
          "name": "recipient",
          "type": "address"
        },
        {
          "internalType": "address",
          "name": "tokenAddress",
          "type": "address"
        },
        {
          "internalType": "uint256",
          "name": "amount",
          "type": "uint256"
        }
      ],
      "name": "withdrawFromVault",
      "outputs": [
        {
          "internalType": "bool",
          "name": "success",
          "type": "bool"
        }
      ],
      "stateMutability": "nonpayable",
      "type": "function"
    }
  ],
  "bytecode": "0x60806040523480156200001157600080fd5b5060405162004071380380620040718339818101604052810190620000379190620001cb565b620000576200004b620000e860201b60201c565b620000f060201b60201c565b6001808190555081600660006101000a81548173ffffffffffffffffffffffffffffffffffffffff021916908373ffffffffffffffffffffffffffffffffffffffff16021790555080600760006101000a81548173ffffffffffffffffffffffffffffffffffffffff021916908373ffffffffffffffffffffffffffffffffffffffff16021790555050506200025a565b600033905090565b60008060009054906101000a900473ffffffffffffffffffffffffffffffffffffffff169050816000806101000a81548173ffffffffffffffffffffffffffffffffffffffff021916908373ffffffffffffffffffffffffffffffffffffffff1602179055508173ffffffffffffffffffffffffffffffffffffffff168173ffffffffffffffffffffffffffffffffffffffff167f8be0079c531659141344cd1fd0a4f28419497f9722a3daafe3b4186f6b6457e060405160405180910390a35050565b600081519050620001c58162000240565b92915050565b60008060408385031215620001df57600080fd5b6000620001ef85828601620001b4565b92505060206200020285828601620001b4565b9150509250929050565b6000620002198262000220565b9050919050565b600073ffffffffffffffffffffffffffffffffffffffff82169050919050565b6200024b816200020c565b81146200025757600080fd5b50565b613e07806200026a6000396000f3fe608060405234801561001057600080fd5b506004361061012c5760003560e01c8063a9eda80f116100ad578063ecf3d7e811610071578063ecf3d7e8146103a3578063f2a92b37146103d3578063f2fde38b14610406578063f3ede0d514610422578063ffdd5cf1146104545761012c565b8063a9eda80f146102c5578063add4fcd0146102f5578063bd208beb14610325578063e52bbc1b14610355578063e5cde486146103855761012c565b80635a446a7f116100f45780635a446a7f146102215780635fac5e8714610251578063715018a61461026d57806373f8fd4b146102775780638da5cb5b146102a75761012c565b80630568fd3c1461013157806321214ad114610161578063347e7471146101915780633af9e669146101c157806347e7ef24146101f1575b600080fd5b61014b60048036038101906101469190612c32565b610485565b604051610158919061323f565b60405180910390f35b61017b60048036038101906101769190612be3565b61093a565b604051610188919061323f565b60405180910390f35b6101ab60048036038101906101a69190612c95565b610d9f565b6040516101b8919061345a565b60405180910390f35b6101db60048036038101906101d69190612b1b565b610f3a565b6040516101e89190613490565b60405180910390f35b61020b60048036038101906102069190612c95565b610fd3565b604051610218919061323f565b60405180910390f35b61023b60048036038101906102369190612b80565b611391565b604051610248919061323f565b60405180910390f35b61026b60048036038101906102669190612be3565b611596565b005b610275611986565b005b610291600480360381019061028c9190612b44565b611a0e565b60405161029e9190613490565b60405180910390f35b6102af611a98565b6040516102bc919061311f565b60405180910390f35b6102df60048036038101906102da9190612b44565b611ac1565b6040516102ec9190613475565b60405180910390f35b61030f600480360381019061030a9190612d75565b611ca3565b60405161031c919061323f565b60405180910390f35b61033f600480360381019061033a9190612b1b565b611ef8565b60405161034c9190613490565b60405180910390f35b61036f600480360381019061036a9190612b1b565b611f10565b60405161037c9190613490565b60405180910390f35b61038d612079565b60405161039a9190613490565b60405180910390f35b6103bd60048036038101906103b89190612be3565b61207f565b6040516103ca919061323f565b60405180910390f35b6103ed60048036038101906103e89190612c95565b6123fd565b6040516103fd94939291906134ab565b60405180910390f35b610420600480360381019061041b9190612b1b565b612467565b005b61043c60048036038101906104379190612b44565b61255f565b60405161044b93929190613208565b60405180910390f35b61046e60048036038101906104699190612b1b565b6125c3565b60405161047c929190613551565b60405180910390f35b6000600260015414156104cd576040517f08c379a00000000000000000000000000000000000000000000000000000000081526004016104c4906133fa565b60405180910390fd5b60026001819055506000600760009054906101000a900473ffffffffffffffffffffffffffffffffffffffff1673ffffffffffffffffffffffffffffffffffffffff1663347e747133856040518363ffffffff1660e01b81526004016105349291906131df565b60806040518083038186803b15801561054c57600080fd5b505afa158015610560573d6000803e3d6000fd5b505050506040513d601f19601f820116820180604052508101906105849190612cfa565b90508060600151801561059c57506000816000015114155b6105db576040517f08c379a00000000000000000000000000000000000000000000000000000000081526004016105d29061339a565b60405180910390fd5b6000841161061e576040517f08c379a00000000000000000000000000000000000000000000000000000000081526004016106159061327a565b60405180910390fd5b600760009054906101000a900473ffffffffffffffffffffffffffffffffffffffff1673ffffffffffffffffffffffffffffffffffffffff1663add4fcd0856000888a33896040518763ffffffff1660e01b8152600401610684969594939291906134f0565b602060405180830381600087803b15801561069e57600080fd5b505af11580156106b2573d6000803e3d6000fd5b505050506040513d601f19601f820116820180604052508101906106d69190612cd1565b610715576040517f08c379a000000000000000000000000000000000000000000000000000000000815260040161070c906132fa565b60405180910390fd5b60008690508073ffffffffffffffffffffffffffffffffffffffff166323b872dd600760009054906101000a900473ffffffffffffffffffffffffffffffffffffffff16600660009054906101000a900473ffffffffffffffffffffffffffffffffffffffff16886040518463ffffffff1660e01b815260040161079b939291906131a8565b600060405180830381600087803b1580156107b557600080fd5b505af11580156107c9573d6000803e3d6000fd5b505050506000600660009054906101000a900473ffffffffffffffffffffffffffffffffffffffff1673ffffffffffffffffffffffffffffffffffffffff1663a9eda80f338a6040518363ffffffff1660e01b815260040161082c92919061313a565b60606040518083038186803b15801561084457600080fd5b505afa158015610858573d6000803e3d6000fd5b505050506040513d601f19601f8201168201806040525081019061087c9190612d23565b9050600086826020015161089091906135b0565b9050600660009054906101000a900473ffffffffffffffffffffffffffffffffffffffff1673ffffffffffffffffffffffffffffffffffffffff16635fac5e87338b846040518463ffffffff1660e01b81526004016108f1939291906131a8565b600060405180830381600087803b15801561090b57600080fd5b505af115801561091f573d6000803e3d6000fd5b50505050600194505050505060018081905550949350505050565b600060026001541415610982576040517f08c379a0000000000000000000000000000000000000000000000000000000008152600401610979906133fa565b60405180910390fd5b600260018190555060008490506000600660009054906101000a900473ffffffffffffffffffffffffffffffffffffffff1673ffffffffffffffffffffffffffffffffffffffff1663a9eda80f33886040518363ffffffff1660e01b81526004016109ee92919061313a565b60606040518083038186803b158015610a0657600080fd5b505afa158015610a1a573d6000803e3d6000fd5b505050506040513d601f19601f82011682018060405250810190610a3e9190612d23565b905080604001518015610a5657506000816020015114155b610a95576040517f08c379a0000000000000000000000000000000000000000000000000000000008152600401610a8c9061341a565b60405180910390fd5b60008411610ad8576040517f08c379a0000000000000000000000000000000000000000000000000000000008152600401610acf9061325a565b60405180910390fd5b8060200151841115610b1f576040517f08c379a0000000000000000000000000000000000000000000000000000000008152600401610b16906133da565b60405180910390fd5b8173ffffffffffffffffffffffffffffffffffffffff166323b872dd600660009054906101000a900473ffffffffffffffffffffffffffffffffffffffff16600760009054906101000a900473ffffffffffffffffffffffffffffffffffffffff16876040518463ffffffff1660e01b8152600401610ba0939291906131a8565b602060405180830381600087803b158015610bba57600080fd5b505af1158015610bce573d6000803e3d6000fd5b505050506040513d601f19601f82011682018060405250810190610bf29190612cd1565b50600760009054906101000a900473ffffffffffffffffffffffffffffffffffffffff1673ffffffffffffffffffffffffffffffffffffffff16635a446a7f878733886040518563ffffffff1660e01b8152600401610c549493929190613163565b602060405180830381600087803b158015610c6e57600080fd5b505af1158015610c82573d6000803e3d6000fd5b505050506040513d601f19601f82011682018060405250810190610ca69190612cd1565b610ce5576040517f08c379a0000000000000000000000000000000000000000000000000000000008152600401610cdc9061337a565b60405180910390fd5b6000848260200151610cf79190613802565b9050600660009054906101000a900473ffffffffffffffffffffffffffffffffffffffff1673ffffffffffffffffffffffffffffffffffffffff16635fac5e873389846040518463ffffffff1660e01b8152600401610d58939291906131a8565b600060405180830381600087803b158015610d7257600080fd5b505af1158015610d86573d6000803e3d6000fd5b5050505060019350505050600180819055509392505050565b610da7612950565b600460008473ffffffffffffffffffffffffffffffffffffffff1673ffffffffffffffffffffffffffffffffffffffff168152602001908152602001600020600083815260200190815260200160002060030160009054906101000a900460ff1615610ef457600460008473ffffffffffffffffffffffffffffffffffffffff1673ffffffffffffffffffffffffffffffffffffffff1681526020019081526020016000206000838152602001908152602001600020604051806080016040529081600082015481526020016001820160009054906101000a900473ffffffffffffffffffffffffffffffffffffffff1673ffffffffffffffffffffffffffffffffffffffff1673ffffffffffffffffffffffffffffffffffffffff168152602001600282015481526020016003820160009054906101000a900460ff1615151515815250509050610f34565b604051806080016040528060008152602001600073ffffffffffffffffffffffffffffffffffffffff168152602001600081526020016000151581525090505b92915050565b6000808290508073ffffffffffffffffffffffffffffffffffffffff16633af9e669306040518263ffffffff1660e01b8152600401610f79919061311f565b602060405180830381600087803b158015610f9357600080fd5b505af1158015610fa7573d6000803e3d6000fd5b505050506040513d601f19601f82011682018060405250810190610fcb9190612d4c565b915050919050565b60006002600154141561101b576040517f08c379a0000000000000000000000000000000000000000000000000000000008152600401611012906133fa565b60405180910390fd5b60026001819055506000600660009054906101000a900473ffffffffffffffffffffffffffffffffffffffff1673ffffffffffffffffffffffffffffffffffffffff1663a9eda80f33866040518363ffffffff1660e01b815260040161108292919061313a565b60606040518083038186803b15801561109a57600080fd5b505afa1580156110ae573d6000803e3d6000fd5b505050506040513d601f19601f820116820180604052508101906110d29190612d23565b905060008490506000841161111c576040517f08c379a0000000000000000000000000000000000000000000000000000000008152600401611113906133ba565b60405180910390fd5b8073ffffffffffffffffffffffffffffffffffffffff166323b872dd3330876040518463ffffffff1660e01b8152600401611159939291906131a8565b602060405180830381600087803b15801561117357600080fd5b505af1158015611187573d6000803e3d6000fd5b505050506040513d601f19601f820116820180604052508101906111ab9190612cd1565b6111ea576040517f08c379a00000000000000000000000000000000000000000000000000000000081526004016111e1906132da565b60405180910390fd5b8073ffffffffffffffffffffffffffffffffffffffff1663a9059cbb600660009054906101000a900473ffffffffffffffffffffffffffffffffffffffff16866040518363ffffffff1660e01b81526004016112479291906131df565b602060405180830381600087803b15801561126157600080fd5b505af1158015611275573d6000803e3d6000fd5b505050506040513d601f19601f820116820180604052508101906112999190612cd1565b6112d8576040517f08c379a00000000000000000000000000000000000000000000000000000000081526004016112cf9061331a565b60405180910390fd5b60008483602001516112ea91906135b0565b9050600660009054906101000a900473ffffffffffffffffffffffffffffffffffffffff1673ffffffffffffffffffffffffffffffffffffffff16635fac5e873388846040518463ffffffff1660e01b815260040161134b939291906131a8565b600060405180830381600087803b15801561136557600080fd5b505af1158015611379573d6000803e3d6000fd5b50505050600193505050506001808190555092915050565b60008085905060008590508173ffffffffffffffffffffffffffffffffffffffff1663095ea7b387866040518363ffffffff1660e01b81526004016113d79291906131df565b602060405180830381600087803b1580156113f157600080fd5b505af1158015611405573d6000803e3d6000fd5b505050506040513d601f19601f820116820180604052508101906114299190612cd1565b5060008173ffffffffffffffffffffffffffffffffffffffff1663a0712d68866040518263ffffffff1660e01b81526004016114659190613490565b602060405180830381600087803b15801561147f57600080fd5b505af1158015611493573d6000803e3d6000fd5b505050506040513d601f19601f820116820180604052508101906114b79190612d4c565b146114f7576040517f08c379a00000000000000000000000000000000000000000000000000000000081526004016114ee906132ba565b60405180910390fd5b60008173ffffffffffffffffffffffffffffffffffffffff1663bd6d894d6040518163ffffffff1660e01b8152600401602060405180830381600087803b15801561154157600080fd5b505af1158015611555573d6000803e3d6000fd5b505050506040513d601f19601f820116820180604052508101906115799190612d4c565b9050611587868983886126d5565b60019350505050949350505050565b61159e612884565b73ffffffffffffffffffffffffffffffffffffffff166115bc611a98565b73ffffffffffffffffffffffffffffffffffffffff1614611612576040517f08c379a00000000000000000000000000000000000000000000000000000000081526004016116099061333a565b60405180910390fd5b6000829050600260008573ffffffffffffffffffffffffffffffffffffffff1673ffffffffffffffffffffffffffffffffffffffff16815260200190815260200160002060008473ffffffffffffffffffffffffffffffffffffffff1673ffffffffffffffffffffffffffffffffffffffff16815260200190815260200160002060020160009054906101000a900460ff16156117325781600260008673ffffffffffffffffffffffffffffffffffffffff1673ffffffffffffffffffffffffffffffffffffffff16815260200190815260200160002060008573ffffffffffffffffffffffffffffffffffffffff1673ffffffffffffffffffffffffffffffffffffffff16815260200190815260200160002060010181905550611857565b60405180606001604052808573ffffffffffffffffffffffffffffffffffffffff16815260200183815260200160011515815250600260008673ffffffffffffffffffffffffffffffffffffffff1673ffffffffffffffffffffffffffffffffffffffff16815260200190815260200160002060008573ffffffffffffffffffffffffffffffffffffffff1673ffffffffffffffffffffffffffffffffffffffff16815260200190815260200160002060008201518160000160006101000a81548173ffffffffffffffffffffffffffffffffffffffff021916908373ffffffffffffffffffffffffffffffffffffffff1602179055506020820151816001015560408201518160020160006101000a81548160ff0219169083151502179055509050505b60008173ffffffffffffffffffffffffffffffffffffffff1663dd62ed3e30336040518363ffffffff1660e01b815260040161189492919061313a565b60206040518083038186803b1580156118ac57600080fd5b505afa1580156118c0573d6000803e3d6000fd5b505050506040513d601f19601f820116820180604052508101906118e49190612d4c565b90508173ffffffffffffffffffffffffffffffffffffffff1663095ea7b333858461190f91906135b0565b6040518363ffffffff1660e01b815260040161192c9291906131df565b602060405180830381600087803b15801561194657600080fd5b505af115801561195a573d6000803e3d6000fd5b505050506040513d601f19601f8201168201806040525081019061197e9190612cd1565b505050505050565b61198e612884565b73ffffffffffffffffffffffffffffffffffffffff166119ac611a98565b73ffffffffffffffffffffffffffffffffffffffff1614611a02576040517f08c379a00000000000000000000000000000000000000000000000000000000081526004016119f99061333a565b60405180910390fd5b611a0c600061288c565b565b6000600260008473ffffffffffffffffffffffffffffffffffffffff1673ffffffffffffffffffffffffffffffffffffffff16815260200190815260200160002060008373ffffffffffffffffffffffffffffffffffffffff1673ffffffffffffffffffffffffffffffffffffffff16815260200190815260200160002060010154905092915050565b60008060009054906101000a900473ffffffffffffffffffffffffffffffffffffffff16905090565b611ac9612990565b600260008473ffffffffffffffffffffffffffffffffffffffff1673ffffffffffffffffffffffffffffffffffffffff16815260200190815260200160002060008373ffffffffffffffffffffffffffffffffffffffff1673ffffffffffffffffffffffffffffffffffffffff16815260200190815260200160002060020160009054906101000a900460ff1615611c6457600260008473ffffffffffffffffffffffffffffffffffffffff1673ffffffffffffffffffffffffffffffffffffffff16815260200190815260200160002060008373ffffffffffffffffffffffffffffffffffffffff1673ffffffffffffffffffffffffffffffffffffffff1681526020019081526020016000206040518060600160405290816000820160009054906101000a900473ffffffffffffffffffffffffffffffffffffffff1673ffffffffffffffffffffffffffffffffffffffff1673ffffffffffffffffffffffffffffffffffffffff168152602001600182015481526020016002820160009054906101000a900460ff1615151515815250509050611c9d565b6040518060600160405280600073ffffffffffffffffffffffffffffffffffffffff168152602001600081526020016000151581525090505b92915050565b600080611cb08484610d9f565b905060008690506000600115158915151415611d58578173ffffffffffffffffffffffffffffffffffffffff1663db006a758b6040518263ffffffff1660e01b8152600401611cff9190613490565b602060405180830381600087803b158015611d1957600080fd5b505af1158015611d2d573d6000803e3d6000fd5b505050506040513d601f19601f82011682018060405250810190611d519190612d4c565b9050611de6565b8173ffffffffffffffffffffffffffffffffffffffff1663852a12e38b6040518263ffffffff1660e01b8152600401611d919190613490565b602060405180830381600087803b158015611dab57600080fd5b505af1158015611dbf573d6000803e3d6000fd5b505050506040513d601f19601f82011682018060405250810190611de39190612d4c565b90505b60008790508073ffffffffffffffffffffffffffffffffffffffff1663095ea7b3338d6040518363ffffffff1660e01b8152600401611e269291906131df565b602060405180830381600087803b158015611e4057600080fd5b505af1158015611e54573d6000803e3d6000fd5b505050506040513d601f19601f82011682018060405250810190611e789190612cd1565b5060008b8560000151611e8b9190613802565b905080600460008a73ffffffffffffffffffffffffffffffffffffffff1673ffffffffffffffffffffffffffffffffffffffff1681526020019081526020016000206000898152602001908152602001600020600001819055506001955050505050509695505050505050565b60056020528060005260406000206000915090505481565b60008082905060008173ffffffffffffffffffffffffffffffffffffffff166370a08231306040518263ffffffff1660e01b8152600401611f51919061311f565b60206040518083038186803b158015611f6957600080fd5b505afa158015611f7d573d6000803e3d6000fd5b505050506040513d601f19601f82011682018060405250810190611fa19190612d4c565b905060008273ffffffffffffffffffffffffffffffffffffffff1663bd6d894d6040518163ffffffff1660e01b8152600401602060405180830381600087803b158015611fed57600080fd5b505af1158015612001573d6000803e3d6000fd5b505050506040513d601f19601f820116820180604052508101906120259190612d4c565b90506000600890506000600890508082601261204191906135b0565b61204b9190613802565b600a612057919061368a565b838561206391906137a8565b61206d9190613606565b95505050505050919050565b60035481565b6000600260015414156120c7576040517f08c379a00000000000000000000000000000000000000000000000000000000081526004016120be906133fa565b60405180910390fd5b60026001819055506000600660009054906101000a900473ffffffffffffffffffffffffffffffffffffffff1673ffffffffffffffffffffffffffffffffffffffff1663a9eda80f33866040518363ffffffff1660e01b815260040161212e92919061313a565b60606040518083038186803b15801561214657600080fd5b505afa15801561215a573d6000803e3d6000fd5b505050506040513d601f19601f8201168201806040525081019061217e9190612d23565b905080604001516121c4576040517f08c379a00000000000000000000000000000000000000000000000000000000081526004016121bb9061335a565b60405180910390fd5b60008311612207576040517f08c379a00000000000000000000000000000000000000000000000000000000081526004016121fe9061343a565b60405180910390fd5b806020015183111561224e576040517f08c379a0000000000000000000000000000000000000000000000000000000008152600401612245906133da565b60405180910390fd5b60008490508073ffffffffffffffffffffffffffffffffffffffff166323b872dd600660009054906101000a900473ffffffffffffffffffffffffffffffffffffffff1688876040518463ffffffff1660e01b81526004016122b2939291906131a8565b602060405180830381600087803b1580156122cc57600080fd5b505af11580156122e0573d6000803e3d6000fd5b505050506040513d601f19601f820116820180604052508101906123049190612cd1565b612343576040517f08c379a000000000000000000000000000000000000000000000000000000000815260040161233a9061331a565b60405180910390fd5b60008483602001516123559190613802565b9050600660009054906101000a900473ffffffffffffffffffffffffffffffffffffffff1673ffffffffffffffffffffffffffffffffffffffff16635fac5e873388846040518463ffffffff1660e01b81526004016123b6939291906131a8565b600060405180830381600087803b1580156123d057600080fd5b505af11580156123e4573d6000803e3d6000fd5b5050505060019350505050600180819055509392505050565b6004602052816000526040600020602052806000526040600020600091509150508060000154908060010160009054906101000a900473ffffffffffffffffffffffffffffffffffffffff16908060020154908060030160009054906101000a900460ff16905084565b61246f612884565b73ffffffffffffffffffffffffffffffffffffffff1661248d611a98565b73ffffffffffffffffffffffffffffffffffffffff16146124e3576040517f08c379a00000000000000000000000000000000000000000000000000000000081526004016124da9061333a565b60405180910390fd5b600073ffffffffffffffffffffffffffffffffffffffff168173ffffffffffffffffffffffffffffffffffffffff161415612553576040517f08c379a000000000000000000000000000000000000000000000000000000000815260040161254a9061329a565b60405180910390fd5b61255c8161288c565b50565b6002602052816000526040600020602052806000526040600020600091509150508060000160009054906101000a900473ffffffffffffffffffffffffffffffffffffffff16908060010154908060020160009054906101000a900460ff16905083565b60008060008390508073ffffffffffffffffffffffffffffffffffffffff1663bd6d894d6040518163ffffffff1660e01b8152600401602060405180830381600087803b15801561261357600080fd5b505af1158015612627573d6000803e3d6000fd5b505050506040513d601f19601f8201168201806040525081019061264b9190612d4c565b92508073ffffffffffffffffffffffffffffffffffffffff1663ae9d70b06040518163ffffffff1660e01b8152600401602060405180830381600087803b15801561269557600080fd5b505af11580156126a9573d6000803e3d6000fd5b505050506040513d601f19601f820116820180604052508101906126cd9190612d4c565b915050915091565b6000600560008673ffffffffffffffffffffffffffffffffffffffff1673ffffffffffffffffffffffffffffffffffffffff16815260200190815260200160002054905060405180608001604052808381526020018573ffffffffffffffffffffffffffffffffffffffff16815260200184815260200160011515815250600460008773ffffffffffffffffffffffffffffffffffffffff1673ffffffffffffffffffffffffffffffffffffffff16815260200190815260200160002060006001846127a191906135b0565b81526020019081526020016000206000820151816000015560208201518160010160006101000a81548173ffffffffffffffffffffffffffffffffffffffff021916908373ffffffffffffffffffffffffffffffffffffffff1602179055506040820151816002015560608201518160030160006101000a81548160ff02191690831515021790555090505060018161283a91906135b0565b600560008773ffffffffffffffffffffffffffffffffffffffff1673ffffffffffffffffffffffffffffffffffffffff168152602001908152602001600020819055505050505050565b600033905090565b60008060009054906101000a900473ffffffffffffffffffffffffffffffffffffffff169050816000806101000a81548173ffffffffffffffffffffffffffffffffffffffff021916908373ffffffffffffffffffffffffffffffffffffffff1602179055508173ffffffffffffffffffffffffffffffffffffffff168173ffffffffffffffffffffffffffffffffffffffff167f8be0079c531659141344cd1fd0a4f28419497f9722a3daafe3b4186f6b6457e060405160405180910390a35050565b604051806080016040528060008152602001600073ffffffffffffffffffffffffffffffffffffffff168152602001600081526020016000151581525090565b6040518060600160405280600073ffffffffffffffffffffffffffffffffffffffff168152602001600081526020016000151581525090565b6000813590506129d881613d8c565b92915050565b6000815190506129ed81613d8c565b92915050565b600081359050612a0281613da3565b92915050565b600081519050612a1781613da3565b92915050565b600060808284031215612a2f57600080fd5b612a39608061357a565b90506000612a4984828501612b06565b6000830152506020612a5d848285016129de565b6020830152506040612a7184828501612b06565b6040830152506060612a8584828501612a08565b60608301525092915050565b600060608284031215612aa357600080fd5b612aad606061357a565b90506000612abd848285016129de565b6000830152506020612ad184828501612b06565b6020830152506040612ae584828501612a08565b60408301525092915050565b600081359050612b0081613dba565b92915050565b600081519050612b1581613dba565b92915050565b600060208284031215612b2d57600080fd5b6000612b3b848285016129c9565b91505092915050565b60008060408385031215612b5757600080fd5b6000612b65858286016129c9565b9250506020612b76858286016129c9565b9150509250929050565b60008060008060808587031215612b9657600080fd5b6000612ba4878288016129c9565b9450506020612bb5878288016129c9565b9350506040612bc6878288016129c9565b9250506060612bd787828801612af1565b91505092959194509250565b600080600060608486031215612bf857600080fd5b6000612c06868287016129c9565b9350506020612c17868287016129c9565b9250506040612c2886828701612af1565b9150509250925092565b60008060008060808587031215612c4857600080fd5b6000612c56878288016129c9565b9450506020612c67878288016129c9565b9350506040612c7887828801612af1565b9250506060612c8987828801612af1565b91505092959194509250565b60008060408385031215612ca857600080fd5b6000612cb6858286016129c9565b9250506020612cc785828601612af1565b9150509250929050565b600060208284031215612ce357600080fd5b6000612cf184828501612a08565b91505092915050565b600060808284031215612d0c57600080fd5b6000612d1a84828501612a1d565b91505092915050565b600060608284031215612d3557600080fd5b6000612d4384828501612a91565b91505092915050565b600060208284031215612d5e57600080fd5b6000612d6c84828501612b06565b91505092915050565b60008060008060008060c08789031215612d8e57600080fd5b6000612d9c89828a01612af1565b9650506020612dad89828a016129f3565b9550506040612dbe89828a016129c9565b9450506060612dcf89828a016129c9565b9350506080612de089828a016129c9565b92505060a0612df189828a01612af1565b9150509295509295509295565b612e0781613836565b82525050565b612e1681613836565b82525050565b612e2581613848565b82525050565b612e3481613848565b82525050565b6000612e4760308361359f565b9150612e528261395a565b604082019050919050565b6000612e6a60368361359f565b9150612e75826139a9565b604082019050919050565b6000612e8d60268361359f565b9150612e98826139f8565b604082019050919050565b6000612eb060168361359f565b9150612ebb82613a47565b602082019050919050565b6000612ed360178361359f565b9150612ede82613a70565b602082019050919050565b6000612ef6602a8361359f565b9150612f0182613a99565b604082019050919050565b6000612f1960218361359f565b9150612f2482613ae8565b604082019050919050565b6000612f3c60208361359f565b9150612f4782613b37565b602082019050919050565b6000612f5f60288361359f565b9150612f6a82613b60565b604082019050919050565b6000612f8260268361359f565b9150612f8d82613baf565b604082019050919050565b6000612fa560298361359f565b9150612fb082613bfe565b604082019050919050565b6000612fc8601b8361359f565b9150612fd382613c4d565b602082019050919050565b6000612feb602a8361359f565b9150612ff682613c76565b604082019050919050565b600061300e601f8361359f565b915061301982613cc5565b602082019050919050565b600061303160258361359f565b915061303c82613cee565b604082019050919050565b600061305460348361359f565b915061305f82613d3d565b604082019050919050565b6080820160008201516130806000850182613101565b5060208201516130936020850182612dfe565b5060408201516130a66040850182613101565b5060608201516130b96060850182612e1c565b50505050565b6060820160008201516130d56000850182612dfe565b5060208201516130e86020850182613101565b5060408201516130fb6040850182612e1c565b50505050565b61310a81613874565b82525050565b61311981613874565b82525050565b60006020820190506131346000830184612e0d565b92915050565b600060408201905061314f6000830185612e0d565b61315c6020830184612e0d565b9392505050565b60006080820190506131786000830187612e0d565b6131856020830186612e0d565b6131926040830185612e0d565b61319f6060830184613110565b95945050505050565b60006060820190506131bd6000830186612e0d565b6131ca6020830185612e0d565b6131d76040830184613110565b949350505050565b60006040820190506131f46000830185612e0d565b6132016020830184613110565b9392505050565b600060608201905061321d6000830186612e0d565b61322a6020830185613110565b6132376040830184612e2b565b949350505050565b60006020820190506132546000830184612e2b565b92915050565b6000602082019050818103600083015261327381612e3a565b9050919050565b6000602082019050818103600083015261329381612e5d565b9050919050565b600060208201905081810360008301526132b381612e80565b9050919050565b600060208201905081810360008301526132d381612ea3565b9050919050565b600060208201905081810360008301526132f381612ec6565b9050919050565b6000602082019050818103600083015261331381612ee9565b9050919050565b6000602082019050818103600083015261333381612f0c565b9050919050565b6000602082019050818103600083015261335381612f2f565b9050919050565b6000602082019050818103600083015261337381612f52565b9050919050565b6000602082019050818103600083015261339381612f75565b9050919050565b600060208201905081810360008301526133b381612f98565b9050919050565b600060208201905081810360008301526133d381612fbb565b9050919050565b600060208201905081810360008301526133f381612fde565b9050919050565b6000602082019050818103600083015261341381613001565b9050919050565b6000602082019050818103600083015261343381613024565b9050919050565b6000602082019050818103600083015261345381613047565b9050919050565b600060808201905061346f600083018461306a565b92915050565b600060608201905061348a60008301846130bf565b92915050565b60006020820190506134a56000830184613110565b92915050565b60006080820190506134c06000830187613110565b6134cd6020830186612e0d565b6134da6040830185613110565b6134e76060830184612e2b565b95945050505050565b600060c0820190506135056000830189613110565b6135126020830188612e2b565b61351f6040830187612e0d565b61352c6060830186612e0d565b6135396080830185612e0d565b61354660a0830184613110565b979650505050505050565b60006040820190506135666000830185613110565b6135736020830184613110565b9392505050565b6000613584613595565b9050613590828261387e565b919050565b6000604051905090565b600082825260208201905092915050565b60006135bb82613874565b91506135c683613874565b9250827fffffffffffffffffffffffffffffffffffffffffffffffffffffffffffffffff038211156135fb576135fa6138af565b5b828201905092915050565b600061361182613874565b915061361c83613874565b92508261362c5761362b6138de565b5b828204905092915050565b6000808291508390505b60018511156136815780860481111561365d5761365c6138af565b5b600185161561366c5780820291505b808102905061367a8561394d565b9450613641565b94509492505050565b600061369582613874565b91506136a083613874565b92506136cd7fffffffffffffffffffffffffffffffffffffffffffffffffffffffffffffffff84846136d5565b905092915050565b6000826136e557600190506137a1565b816136f357600090506137a1565b8160018114613709576002811461371357613742565b60019150506137a1565b60ff841115613725576137246138af565b5b8360020a91508482111561373c5761373b6138af565b5b506137a1565b5060208310610133831016604e8410600b84101617156137775782820a905083811115613772576137716138af565b5b6137a1565b6137848484846001613637565b9250905081840481111561379b5761379a6138af565b5b81810290505b9392505050565b60006137b382613874565b91506137be83613874565b9250817fffffffffffffffffffffffffffffffffffffffffffffffffffffffffffffffff04831182151516156137f7576137f66138af565b5b828202905092915050565b600061380d82613874565b915061381883613874565b92508282101561382b5761382a6138af565b5b828203905092915050565b600061384182613854565b9050919050565b60008115159050919050565b600073ffffffffffffffffffffffffffffffffffffffff82169050919050565b6000819050919050565b6138878261393c565b810181811067ffffffffffffffff821117156138a6576138a561390d565b5b80604052505050565b7f4e487b7100000000000000000000000000000000000000000000000000000000600052601160045260246000fd5b7f4e487b7100000000000000000000000000000000000000000000000000000000600052601260045260246000fd5b7f4e487b7100000000000000000000000000000000000000000000000000000000600052604160045260246000fd5b6000601f19601f8301169050919050565b60008160011c9050919050565b7f57616c6c65743a20496e7665737420616d6f756e74206d75737420626520677260008201527f6561746572207468616e207a65726f2100000000000000000000000000000000602082015250565b7f57697468647261773a205769746864726177616c20616d6f756e74206d75737460008201527f2062652067726561746572207468616e207a65726f2100000000000000000000602082015250565b7f4f776e61626c653a206e6577206f776e657220697320746865207a65726f206160008201527f6464726573730000000000000000000000000000000000000000000000000000602082015250565b7f636f6d706f756e643a206d696e74206661696c65642100000000000000000000600082015250565b7f57616c6c65743a204465706f736974206661696c656421000000000000000000600082015250565b7f57697468647261773a205769746864726177616c2066726f6d20636f6d706f7560008201527f6e64206661696c65642100000000000000000000000000000000000000000000602082015250565b7f57616c6c65743a207472616e7366657220746f207661756c74206661696c656460008201527f2100000000000000000000000000000000000000000000000000000000000000602082015250565b7f4f776e61626c653a2063616c6c6572206973206e6f7420746865206f776e6572600082015250565b7f57616c6c65743a204f6e6c79206163636f756e74206f776e65722063616e207760008201527f6974686472617721000000000000000000000000000000000000000000000000602082015250565b7f57616c6c65743a20696e766573746d656e7420696e20636f6d706f756e64206660008201527f61696c6564210000000000000000000000000000000000000000000000000000602082015250565b7f57697468647261773a20696e7665737420696e20636f6d706f756e6420746f2060008201527f636f6e74696e7565210000000000000000000000000000000000000000000000602082015250565b7f57616c6c65743a20616d6f756e742063616e6e6f742062652030210000000000600082015250565b7f57616c6c65743a20496e73756666696369656e7420746f6b656e2066756e647360008201527f20666f7220757365722100000000000000000000000000000000000000000000602082015250565b7f5265656e7472616e637947756172643a207265656e7472616e742063616c6c00600082015250565b7f57616c6c65743a2066756e6420796f75722077616c6c657420746f20636f6e7460008201527f696e756521000000000000000000000000000000000000000000000000000000602082015250565b7f57616c6c65743a207769746864726177616c20616d6f756e74206d757374206260008201527f652067726561746572207468616e207a65726f21000000000000000000000000602082015250565b613d9581613836565b8114613da057600080fd5b50565b613dac81613848565b8114613db757600080fd5b50565b613dc381613874565b8114613dce57600080fd5b5056fea26469706673582212202b55f73ecd26767c7c0a2635e39875fbd4f5bd054d0d11d165be0cb4637022e464736f6c63430008020033",
  "linkReferences": {},
  "deployedLinkReferences": {}
}